{
  "_format": "hh-sol-artifact-1",
  "contractName": "ImageAttestationRegistry",
  "sourceName": "contracts/ImageAttestationRegistry.sol",
  "abi": [
    {
      "inputs": [
        {
          "internalType": "address",
          "name": "registryAddress",
          "type": "address"
        }
      ],
      "stateMutability": "nonpayable",
      "type": "constructor"
    },
    {
      "inputs": [],
      "name": "AttestationAlreadyExists",
      "type": "error"
    },
    {
      "inputs": [],
      "name": "ModelInactive",
      "type": "error"
    },
    {
      "inputs": [],
      "name": "NotRegisteredProvider",
      "type": "error"
    },
    {
      "anonymous": false,
      "inputs": [
        {
          "indexed": true,
          "internalType": "bytes32",
          "name": "imageCommitment",
          "type": "bytes32"
        },
        {
          "indexed": true,
          "internalType": "address",
          "name": "provider",
          "type": "address"
        },
        {
          "indexed": false,
          "internalType": "string",
          "name": "modelId",
          "type": "string"
        },
        {
          "indexed": false,
          "internalType": "uint64",
          "name": "issuedAt",
          "type": "uint64"
        }
      ],
      "name": "AttestationRegistered",
      "type": "event"
    },
    {
      "inputs": [
        {
          "internalType": "bytes32",
          "name": "",
          "type": "bytes32"
        }
      ],
      "name": "attestations",
      "outputs": [
        {
          "internalType": "address",
          "name": "provider",
          "type": "address"
        },
        {
          "internalType": "string",
          "name": "modelId",
          "type": "string"
        },
        {
          "internalType": "uint64",
          "name": "issuedAt",
          "type": "uint64"
        }
      ],
      "stateMutability": "view",
      "type": "function"
    },
    {
      "inputs": [
        {
          "internalType": "bytes32",
          "name": "imageCommitment",
          "type": "bytes32"
        },
        {
          "internalType": "string",
          "name": "modelId",
          "type": "string"
        }
      ],
      "name": "registerAttestation",
      "outputs": [],
      "stateMutability": "nonpayable",
      "type": "function"
    },
    {
      "inputs": [],
      "name": "registry",
      "outputs": [
        {
          "internalType": "contract ProviderRegistry",
          "name": "",
          "type": "address"
        }
      ],
      "stateMutability": "view",
      "type": "function"
    },
    {
      "inputs": [
        {
          "internalType": "bytes32",
          "name": "imageCommitment",
          "type": "bytes32"
        }
      ],
      "name": "verifyImage",
      "outputs": [
        {
          "internalType": "address",
          "name": "provider",
          "type": "address"
        },
        {
          "internalType": "string",
          "name": "modelId",
          "type": "string"
        },
        {
          "internalType": "uint64",
          "name": "issuedAt",
          "type": "uint64"
        }
      ],
      "stateMutability": "view",
      "type": "function"
    }
  ],
  "bytecode": "0x60a03461007357601f61077438819003918201601f19168301916001600160401b038311848410176100785780849260209460405283398101031261007357516001600160a01b03811690819003610073576080526040516106e5908161008f823960805181818161013501526102170152f35b600080fd5b634e487b7160e01b600052604160045260246000fdfe6080806040526004908136101561001557600080fd5b60003560e01c908163072c62af14610164575080637b1039991461011f578063940992a3146100ca5763e32564cd1461004d57600080fd5b346100c55760203660031901126100c55735600052600060205260406000206040516100788161052f565b81546001600160a01b0390811682526100c1906001600160401b0360026100a160018701610581565b958660208701520154169283604082015251169160405193849384610627565b0390f35b600080fd5b50346100c55760203660031901126100c55735600090815260208190526040902080546001600160a01b03166100c16001600160401b03600261010f60018601610581565b9401541660405193849384610627565b346100c55760003660031901126100c5576040517f00000000000000000000000000000000000000000000000000000000000000006001600160a01b03168152602090f35b9050346100c55760403660031901126100c557602435906001600160401b0382116100c557366023830112156100c5576001600160401b0382840135116100c55736602483850135840101116100c557823560005260006020526001600160401b03600260406000200154166104e75750604051632c20cf5360e11b81523383820152604060248201528061020360448201848601356024860161068e565b6001600160a01b03929160409183919003817f000000000000000000000000000000000000000000000000000000000000000086165afa9081156104db5760009161049d575b501561048c576040519061025c8261052f565b33825260405161027985850135601f01601f191660200182610560565b84840135808252602485016020830137600060208587013583010152602083019081526001600160401b0342166040840152843560005260006020526040600020918351166bffffffffffffffffffffffff60a01b835416178255518051906001600160401b038211610477576102f360018401546104f5565b601f8111610430575b50602090601f83116001146103b35792826040936002936001600160401b03966000926103a8575b50508160011b916000199060031b1c19161760018201555b01920151166001600160401b03198254161790557f83d6540d1d3e088b1a1d9fa0c0aa1fe0c3894eb0587320a3a256d4214b0deeb161038e60405192604084526040840190602481870135910161068e565b916001600160401b034216602082015280339435930390a3005b015190503880610324565b906001840160005260206000209160005b601f19851681106104185750836002936001600160401b039693600193604097601f198116106103ff575b505050811b01600182015561033c565b015160001960f88460031b161c191690553880806103ef565b919260206001819286850151815501940192016103c4565b600184016000526020600020601f840160051c810160208510610470575b601f830160051c820181106104645750506102fc565b6000815560010161044e565b508061044e565b604186634e487b7160e01b6000525260246000fd5b604051631a58b31960e31b81528390fd5b90506040813d6040116104d3575b816104b860409383610560565b810103126100c5576020015180151581036100c55738610249565b3d91506104ab565b6040513d6000823e3d90fd5b63631ecd5160e01b81529050fd5b90600182811c92168015610525575b602083101461050f57565b634e487b7160e01b600052602260045260246000fd5b91607f1691610504565b606081019081106001600160401b0382111761054a57604052565b634e487b7160e01b600052604160045260246000fd5b90601f801991011681019081106001600160401b0382111761054a57604052565b9060405191826000825492610595846104f5565b90818452600194858116908160001461060457506001146105c1575b50506105bf92500383610560565b565b9093915060005260209081600020936000915b8183106105ec5750506105bf935082010138806105b1565b855488840185015294850194879450918301916105d4565b9150506105bf94506020925060ff191682840152151560051b82010138806105b1565b919093929360018060a01b03168252602060608184015281519182606085015260005b83811061067a575050506001600160401b0360808260008260409587010152601f80199101168401019416910152565b81810183015185820160800152820161064a565b908060209392818452848401376000828201840152601f01601f191601019056fea2646970667358221220cbe65b6600ae0f8a001da3fcbed507bc4118aafda7c118bbebbd32d6031a520764736f6c63430008140033",
  "linkReferences": {},
  "deployedLinkReferences": {}
}